{
    "txid": "fd626065f4037a86049c4dad523a7cd9720a583fb29c9f3d093e2df58f7c4483",
    "hash": "fd626065f4037a86049c4dad523a7cd9720a583fb29c9f3d093e2df58f7c4483",
    "version": 1,
    "size": 176,
    "vsize": 176,
    "locktime": 0,
    "vin": [
        {
            "txid": "5897de6bd6027a475eadd57019d4e6872c396d0716c4875a5f1a6fcfdf385c1f",
            "vout": 0,
            "scriptSig": {
                "asm": "",
                "hex": ""
            },
            "sequence": 4294967295
        }
    ],
    "vout": [
        {
            "value": 0.18000000,
            "n": 0,
            "scriptPubKey": {
                "asm": "OP_DUP OP_HASH160 8fd139bb39ced713f231c58a4d07bf6954d1c201 OP_EQUALVERIFY OP_CHECKSIG",
                "hex": "76a9148fd139bb39ced713f231c58a4d07bf6954d1c20188ac",
                "reqSigs": 1,
                "type": "pubkeyhash",
                "addresses": [
                    "AUtJvB2BaLwNbTmLU5A3fvwaFZk41RwFMu"
                ]
            }
        },
        {
            "value": 4.00000000,
            "n": 1,
            "scriptPubKey": {
                "asm": "OP_RETURN 54686973204f505f52455455524e207472616e73616374696f6e206f7574707574207761732063726561746564206279206d6f646966696564206372656174657261777472616e73616374696f6e2e",
                "hex": "6a4c4f54686973204f505f52455455524e207472616e73616374696f6e206f7574707574207761732063726561746564206279206d6f646966696564206372656174657261777472616e73616374696f6e2e",
                "type": "nulldata"
            }
        }
    ],
    "hex": "01000000011f5c38dfcf6f1a5f5a87c416076d392c87e6d41970d5ad5e477a02d66bde97580000000000ffffffff0280a81201000000001976a9148fd139bb39ced713f231c58a4d07bf6954d1c20188ac0084d71700000000526a4c4f54686973204f505f52455455524e207472616e73616374696f6e206f7574707574207761732063726561746564206279206d6f646966696564206372656174657261777472616e73616374696f6e2e00000000"
}
